{
  "_format": "hh-sol-artifact-1",
  "contractName": "testTokenDefi",
  "sourceName": "contracts/testTokenDefi.sol",
  "abi": [
    {
      "inputs": [],
      "stateMutability": "nonpayable",
      "type": "constructor"
    },
    {
      "anonymous": false,
      "inputs": [
        {
          "indexed": false,
          "internalType": "uint256",
          "name": "amountToken",
          "type": "uint256"
        },
        {
          "indexed": false,
          "internalType": "uint256",
          "name": "amountETH",
          "type": "uint256"
        },
        {
          "indexed": false,
          "internalType": "uint256",
          "name": "liquidity",
          "type": "uint256"
        }
      ],
      "name": "_addLiq",
      "type": "event"
    },
    {
      "anonymous": false,
      "inputs": [
        {
          "indexed": false,
          "internalType": "uint256",
          "name": "amountToken",
          "type": "uint256"
        },
        {
          "indexed": false,
          "internalType": "uint256",
          "name": "amountETH",
          "type": "uint256"
        }
      ],
      "name": "_removeLiq",
      "type": "event"
    },
    {
      "inputs": [],
      "name": "Router",
      "outputs": [
        {
          "internalType": "contract IUniswapV2Router02",
          "name": "",
          "type": "address"
        }
      ],
      "stateMutability": "view",
      "type": "function"
    },
    {
      "inputs": [],
      "name": "WETH",
      "outputs": [
        {
          "internalType": "contract IWETH",
          "name": "",
          "type": "address"
        }
      ],
      "stateMutability": "view",
      "type": "function"
    },
    {
      "inputs": [],
      "name": "WETHAdd",
      "outputs": [
        {
          "internalType": "address",
          "name": "",
          "type": "address"
        }
      ],
      "stateMutability": "view",
      "type": "function"
    },
    {
      "inputs": [
        {
          "internalType": "uint256",
          "name": "_amountTokenDesired",
          "type": "uint256"
        },
        {
          "internalType": "uint256",
          "name": "_amountTokenMin",
          "type": "uint256"
        },
        {
          "internalType": "uint256",
          "name": "_amountETHMin",
          "type": "uint256"
        }
      ],
      "name": "addLiq",
      "outputs": [],
      "stateMutability": "payable",
      "type": "function"
    },
    {
      "inputs": [
        {
          "internalType": "uint256",
          "name": "_liquidity",
          "type": "uint256"
        },
        {
          "internalType": "uint256",
          "name": "_amountTokenMin",
          "type": "uint256"
        },
        {
          "internalType": "uint256",
          "name": "_amountETHMin",
          "type": "uint256"
        }
      ],
      "name": "removeLiq",
      "outputs": [],
      "stateMutability": "nonpayable",
      "type": "function"
    },
    {
      "inputs": [
        {
          "internalType": "uint256",
          "name": "_amountOutMin",
          "type": "uint256"
        }
      ],
      "name": "swapETHToToken",
      "outputs": [],
      "stateMutability": "payable",
      "type": "function"
    },
    {
      "inputs": [
        {
          "internalType": "uint256",
          "name": "_amountIn",
          "type": "uint256"
        },
        {
          "internalType": "uint256",
          "name": "_amountOutMin",
          "type": "uint256"
        }
      ],
      "name": "swapTokenToETH",
      "outputs": [],
      "stateMutability": "nonpayable",
      "type": "function"
    },
    {
      "inputs": [],
      "name": "token",
      "outputs": [
        {
          "internalType": "contract TokenForDefi",
          "name": "",
          "type": "address"
        }
      ],
      "stateMutability": "view",
      "type": "function"
    },
    {
      "inputs": [],
      "name": "tokenAdd",
      "outputs": [
        {
          "internalType": "address",
          "name": "",
          "type": "address"
        }
      ],
      "stateMutability": "view",
      "type": "function"
    },
    {
      "inputs": [],
      "name": "uniV2R",
      "outputs": [
        {
          "internalType": "address",
          "name": "",
          "type": "address"
        }
      ],
      "stateMutability": "view",
      "type": "function"
    }
  ],
  "bytecode": "0x608060405234801561001057600080fd5b50737a250d5630b4cf539739df2c5dacb4c659f2488d6000806101000a81548173ffffffffffffffffffffffffffffffffffffffff021916908373ffffffffffffffffffffffffffffffffffffffff16021790555073072879584049faf96a8939cd60bad6b4cd5860f5600160006101000a81548173ffffffffffffffffffffffffffffffffffffffff021916908373ffffffffffffffffffffffffffffffffffffffff16021790555073c778417e063141139fce010982780140aa0cd5ab600260006101000a81548173ffffffffffffffffffffffffffffffffffffffff021916908373ffffffffffffffffffffffffffffffffffffffff1602179055506113e18061011e6000396000f3fe6080604052600436106100915760003560e01c8063ad5c464811610059578063ad5c46481461014b578063e29f99f014610176578063e6939f15146101a1578063f6d7eade146101cc578063fc0c546a146101f757610091565b806319ee0618146100965780634a9f9821146100bf57806351be58f4146100ea57806359a7708014610113578063aa73fe961461012f575b600080fd5b3480156100a257600080fd5b506100bd60048036038101906100b89190610dde565b610222565b005b3480156100cb57600080fd5b506100d4610342565b6040516100e19190610f4c565b60405180910390f35b3480156100f657600080fd5b50610111600480360381019061010c9190610d66565b61035a565b005b61012d60048036038101906101289190610d3d565b610721565b005b61014960048036038101906101449190610dde565b610970565b005b34801561015757600080fd5b50610160610b5e565b60405161016d9190611043565b60405180910390f35b34801561018257600080fd5b5061018b610b84565b6040516101989190610f4c565b60405180910390f35b3480156101ad57600080fd5b506101b6610b9c565b6040516101c39190610f4c565b60405180910390f35b3480156101d857600080fd5b506101e1610bb4565b6040516101ee9190611028565b60405180910390f35b34801561020357600080fd5b5061020c610bd8565b604051610219919061105e565b60405180910390f35b60008060008054906101000a900473ffffffffffffffffffffffffffffffffffffffff1673ffffffffffffffffffffffffffffffffffffffff166302751cec73072879584049faf96a8939cd60bad6b4cd5860f587878733610258426102889190611215565b6040518763ffffffff1660e01b81526004016102a996959493929190610fc7565b6040805180830381600087803b1580156102c257600080fd5b505af11580156102d6573d6000803e3d6000fd5b505050506040513d601f19601f820116820180604052508101906102fa9190610da2565b80925081935050507fc1500cb13de9fcb9ca5510777817c759d53f4b2ad4d5f05933b1125d1086448582826040516103339291906110c5565b60405180910390a15050505050565b73c778417e063141139fce010982780140aa0cd5ab81565b600160009054906101000a900473ffffffffffffffffffffffffffffffffffffffff1673ffffffffffffffffffffffffffffffffffffffff166323b872dd3330856040518463ffffffff1660e01b81526004016103b993929190610f67565b602060405180830381600087803b1580156103d357600080fd5b505af11580156103e7573d6000803e3d6000fd5b505050506040513d601f19601f8201168201806040525081019061040b9190610d14565b50600160009054906101000a900473ffffffffffffffffffffffffffffffffffffffff1673ffffffffffffffffffffffffffffffffffffffff1663095ea7b3737a250d5630b4cf539739df2c5dacb4c659f2488d846040518363ffffffff1660e01b815260040161047d929190610f9e565b602060405180830381600087803b15801561049757600080fd5b505af11580156104ab573d6000803e3d6000fd5b505050506040513d601f19601f820116820180604052508101906104cf9190610d14565b506060600267ffffffffffffffff811115610513577f4e487b7100000000000000000000000000000000000000000000000000000000600052604160045260246000fd5b6040519080825280602002602001820160405280156105415781602001602082028036833780820191505090505b50905073072879584049faf96a8939cd60bad6b4cd5860f581600081518110610593577f4e487b7100000000000000000000000000000000000000000000000000000000600052603260045260246000fd5b602002602001019073ffffffffffffffffffffffffffffffffffffffff16908173ffffffffffffffffffffffffffffffffffffffff168152505073c778417e063141139fce010982780140aa0cd5ab8160018151811061061c577f4e487b7100000000000000000000000000000000000000000000000000000000600052603260045260246000fd5b602002602001019073ffffffffffffffffffffffffffffffffffffffff16908173ffffffffffffffffffffffffffffffffffffffff168152505060008054906101000a900473ffffffffffffffffffffffffffffffffffffffff1673ffffffffffffffffffffffffffffffffffffffff166318cbafe584848433610258426106a49190611215565b6040518663ffffffff1660e01b81526004016106c49594939291906110ee565b600060405180830381600087803b1580156106de57600080fd5b505af11580156106f2573d6000803e3d6000fd5b505050506040513d6000823e3d601f19601f8201168201806040525081019061071b9190610cd3565b50505050565b6060600267ffffffffffffffff811115610764577f4e487b7100000000000000000000000000000000000000000000000000000000600052604160045260246000fd5b6040519080825280602002602001820160405280156107925781602001602082028036833780820191505090505b50905073c778417e063141139fce010982780140aa0cd5ab816000815181106107e4577f4e487b7100000000000000000000000000000000000000000000000000000000600052603260045260246000fd5b602002602001019073ffffffffffffffffffffffffffffffffffffffff16908173ffffffffffffffffffffffffffffffffffffffff168152505073072879584049faf96a8939cd60bad6b4cd5860f58160018151811061086d577f4e487b7100000000000000000000000000000000000000000000000000000000600052603260045260246000fd5b602002602001019073ffffffffffffffffffffffffffffffffffffffff16908173ffffffffffffffffffffffffffffffffffffffff168152505060008054906101000a900473ffffffffffffffffffffffffffffffffffffffff1673ffffffffffffffffffffffffffffffffffffffff16637ff36ab534848433610258426108f59190611215565b6040518663ffffffff1660e01b81526004016109149493929190611079565b6000604051808303818588803b15801561092d57600080fd5b505af1158015610941573d6000803e3d6000fd5b50505050506040513d6000823e3d601f19601f8201168201806040525081019061096b9190610cd3565b505050565b6000806000600160009054906101000a900473ffffffffffffffffffffffffffffffffffffffff1673ffffffffffffffffffffffffffffffffffffffff1663095ea7b3737a250d5630b4cf539739df2c5dacb4c659f2488d886040518363ffffffff1660e01b81526004016109e6929190610f9e565b602060405180830381600087803b158015610a0057600080fd5b505af1158015610a14573d6000803e3d6000fd5b505050506040513d601f19601f82011682018060405250810190610a389190610d14565b5060008054906101000a900473ffffffffffffffffffffffffffffffffffffffff1673ffffffffffffffffffffffffffffffffffffffff1663f305d71973072879584049faf96a8939cd60bad6b4cd5860f58888883361025842610a9c9190611215565b6040518763ffffffff1660e01b8152600401610abd96959493929190610fc7565b606060405180830381600087803b158015610ad757600080fd5b505af1158015610aeb573d6000803e3d6000fd5b505050506040513d601f19601f82011682018060405250810190610b0f9190610e2d565b8093508194508295505050507f28355902e20e7b089c649c8c26d88c7ca6381c620d3e246f04e5d5c5bb75680c838383604051610b4e93929190611148565b60405180910390a1505050505050565b600260009054906101000a900473ffffffffffffffffffffffffffffffffffffffff1681565b73072879584049faf96a8939cd60bad6b4cd5860f581565b737a250d5630b4cf539739df2c5dacb4c659f2488d81565b60008054906101000a900473ffffffffffffffffffffffffffffffffffffffff1681565b600160009054906101000a900473ffffffffffffffffffffffffffffffffffffffff1681565b6000610c11610c0c846111b0565b61117f565b90508083825260208201905082856020860282011115610c3057600080fd5b60005b85811015610c605781610c468882610cbe565b845260208401935060208301925050600181019050610c33565b5050509392505050565b600082601f830112610c7b57600080fd5b8151610c8b848260208601610bfe565b91505092915050565b600081519050610ca38161137d565b92915050565b600081359050610cb881611394565b92915050565b600081519050610ccd81611394565b92915050565b600060208284031215610ce557600080fd5b600082015167ffffffffffffffff811115610cff57600080fd5b610d0b84828501610c6a565b91505092915050565b600060208284031215610d2657600080fd5b6000610d3484828501610c94565b91505092915050565b600060208284031215610d4f57600080fd5b6000610d5d84828501610ca9565b91505092915050565b60008060408385031215610d7957600080fd5b6000610d8785828601610ca9565b9250506020610d9885828601610ca9565b9150509250929050565b60008060408385031215610db557600080fd5b6000610dc385828601610cbe565b9250506020610dd485828601610cbe565b9150509250929050565b600080600060608486031215610df357600080fd5b6000610e0186828701610ca9565b9350506020610e1286828701610ca9565b9250506040610e2386828701610ca9565b9150509250925092565b600080600060608486031215610e4257600080fd5b6000610e5086828701610cbe565b9350506020610e6186828701610cbe565b9250506040610e7286828701610cbe565b9150509250925092565b6000610e888383610e94565b60208301905092915050565b610e9d8161126b565b82525050565b610eac8161126b565b82525050565b6000610ebd826111ec565b610ec78185611204565b9350610ed2836111dc565b8060005b83811015610f03578151610eea8882610e7c565b9750610ef5836111f7565b925050600181019050610ed6565b5085935050505092915050565b610f19816112b3565b82525050565b610f28816112d7565b82525050565b610f37816112fb565b82525050565b610f46816112a9565b82525050565b6000602082019050610f616000830184610ea3565b92915050565b6000606082019050610f7c6000830186610ea3565b610f896020830185610ea3565b610f966040830184610f3d565b949350505050565b6000604082019050610fb36000830185610ea3565b610fc06020830184610f3d565b9392505050565b600060c082019050610fdc6000830189610ea3565b610fe96020830188610f3d565b610ff66040830187610f3d565b6110036060830186610f3d565b6110106080830185610ea3565b61101d60a0830184610f3d565b979650505050505050565b600060208201905061103d6000830184610f10565b92915050565b60006020820190506110586000830184610f1f565b92915050565b60006020820190506110736000830184610f2e565b92915050565b600060808201905061108e6000830187610f3d565b81810360208301526110a08186610eb2565b90506110af6040830185610ea3565b6110bc6060830184610f3d565b95945050505050565b60006040820190506110da6000830185610f3d565b6110e76020830184610f3d565b9392505050565b600060a0820190506111036000830188610f3d565b6111106020830187610f3d565b81810360408301526111228186610eb2565b90506111316060830185610ea3565b61113e6080830184610f3d565b9695505050505050565b600060608201905061115d6000830186610f3d565b61116a6020830185610f3d565b6111776040830184610f3d565b949350505050565b6000604051905081810181811067ffffffffffffffff821117156111a6576111a561134e565b5b8060405250919050565b600067ffffffffffffffff8211156111cb576111ca61134e565b5b602082029050602081019050919050565b6000819050602082019050919050565b600081519050919050565b6000602082019050919050565b600082825260208201905092915050565b6000611220826112a9565b915061122b836112a9565b9250827fffffffffffffffffffffffffffffffffffffffffffffffffffffffffffffffff038211156112605761125f61131f565b5b828201905092915050565b600061127682611289565b9050919050565b60008115159050919050565b600073ffffffffffffffffffffffffffffffffffffffff82169050919050565b6000819050919050565b60006112be826112c5565b9050919050565b60006112d082611289565b9050919050565b60006112e2826112e9565b9050919050565b60006112f482611289565b9050919050565b60006113068261130d565b9050919050565b600061131882611289565b9050919050565b7f4e487b7100000000000000000000000000000000000000000000000000000000600052601160045260246000fd5b7f4e487b7100000000000000000000000000000000000000000000000000000000600052604160045260246000fd5b6113868161127d565b811461139157600080fd5b50565b61139d816112a9565b81146113a857600080fd5b5056fea26469706673582212200cd23cb38b4d65a7f02feb24712cd8eeae425f7b4138aac1001eb044dfb04c7764736f6c63430008000033",
  "linkReferences": {},
  "deployedLinkReferences": {}
}